{
  "contractName": "Contract",
  "abi": [
    {
      "inputs": [],
      "payable": false,
      "stateMutability": "nonpayable",
      "type": "constructor"
    },
    {
      "anonymous": false,
      "inputs": [
        {
          "indexed": false,
          "internalType": "uint256",
          "name": "value_bis",
          "type": "uint256"
        }
      ],
      "name": "click",
      "type": "event"
    },
    {
      "constant": true,
      "inputs": [],
      "name": "value",
      "outputs": [
        {
          "internalType": "uint256",
          "name": "",
          "type": "uint256"
        }
      ],
      "payable": false,
      "stateMutability": "view",
      "type": "function"
    },
    {
      "constant": false,
      "inputs": [],
      "name": "pressClick",
      "outputs": [],
      "payable": false,
      "stateMutability": "nonpayable",
      "type": "function"
    }
  ],
  "bytecode": "0x6080604052348015600f57600080fd5b50600160008190555060d0806100266000396000f3fe6080604052348015600f57600080fd5b506004361060325760003560e01c80633fa4f245146037578063fcd85cf0146053575b600080fd5b603d605b565b6040518082815260200191505060405180910390f35b60596061565b005b60005481565b7fe358bcf06ab038612f73e0d6de86b39f3db0cfb32c49c2a809df94c418294b1160096040518082815260200191505060405180910390a156fea265627a7a723158206c7005fb4ccff68f46e6ff8968796c4c9761f19789300f5092a32ee86859e08264736f6c63430005110032",
  "source": "pragma solidity >=0.5.1;\n\n/*\n    Contract with a value, an event and a function\n\n    Missing\n        Modifiers\n        Payable functions\n        View functions\n*/\ncontract Contract {\n\n    uint public value;\n    event click(uint value_bis);\n\n    constructor() public {\n\n        value = 1;\n    }\n\n    function pressClick() public {\n        \n        emit click(9);\n    }\n}",
  "sourcePath": "/Users/yangsong/Desktop/aps1050/aps1050_project/contracts/Contract.sol",
  "compiler": {
    "name": "solc",
    "version": "0.5.17+commit.d19bba13.Emscripten.clang"
  },
  "schemaVersion": "3.4.13",
  "updatedAt": "2023-04-15T01:35:07.033Z",
  "devdoc": {
    "methods": {}
  },
  "userdoc": {
    "methods": {}
  }
}