{
  "contractName": "Contract",
  "abi": [
    {
      "constant": true,
      "inputs": [],
      "name": "value",
      "outputs": [
        {
          "name": "",
          "type": "uint256"
        }
      ],
      "payable": false,
      "stateMutability": "view",
      "type": "function"
    },
    {
      "inputs": [],
      "payable": false,
      "stateMutability": "nonpayable",
      "type": "constructor"
    },
    {
      "anonymous": false,
      "inputs": [
        {
          "indexed": false,
          "name": "value_bis",
          "type": "uint256"
        }
      ],
      "name": "click",
      "type": "event"
    },
    {
      "constant": false,
      "inputs": [],
      "name": "pressClick",
      "outputs": [],
      "payable": false,
      "stateMutability": "nonpayable",
      "type": "function"
    }
  ],
  "bytecode": "0x608060405234801561001057600080fd5b50600160008190555060f0806100276000396000f3fe6080604052600436106043576000357c0100000000000000000000000000000000000000000000000000000000900480633fa4f245146048578063fcd85cf0146070575b600080fd5b348015605357600080fd5b50605a6084565b6040518082815260200191505060405180910390f35b348015607b57600080fd5b506082608a565b005b60005481565b7fe358bcf06ab038612f73e0d6de86b39f3db0cfb32c49c2a809df94c418294b1160096040518082815260200191505060405180910390a156fea165627a7a72305820e68dd0f4cca7d6e9b0cdb9b9b7e3c389da8e61b5d9670116af817106814dfd7c0029",
  "source": "pragma solidity >=0.5.1;\n\n/*\n    Contract with a value, an event and a function\n\n    Missing\n        Modifiers\n        Payable functions\n        View functions\n*/\ncontract Contract {\n\n    uint public value;\n    event click(uint value_bis);\n\n    constructor() public {\n\n        value = 1;\n    }\n\n    function pressClick() public {\n        \n        emit click(9);\n    }\n}",
  "sourcePath": "D:/aps1050/L6.Miscellaneous1/EthereumMinicourse/6.Example - Dapp_mod/contracts/Contract.sol",
  "compiler": {
    "name": "solc",
    "version": "0.5.1+commit.c8a2cb62.Emscripten.clang"
  },
  "schemaVersion": "3.0.22",
  "updatedAt": "2023-04-05T22:46:38.734Z",
  "networkType": "ethereum",
  "devdoc": {
    "methods": {}
  },
  "userdoc": {
    "methods": {}
  }
}