{
  "contractName": "Market",
  "abi": [
    {
      "constant": true,
      "inputs": [
        {
          "internalType": "uint256",
          "name": "",
          "type": "uint256"
        }
      ],
      "name": "buyers",
      "outputs": [
        {
          "internalType": "address",
          "name": "",
          "type": "address"
        }
      ],
      "payable": false,
      "stateMutability": "view",
      "type": "function"
    },
    {
      "constant": false,
      "inputs": [
        {
          "internalType": "uint256",
          "name": "itemId",
          "type": "uint256"
        }
      ],
      "name": "buy",
      "outputs": [
        {
          "internalType": "uint256",
          "name": "",
          "type": "uint256"
        }
      ],
      "payable": false,
      "stateMutability": "nonpayable",
      "type": "function"
    },
    {
      "constant": true,
      "inputs": [],
      "name": "getBuyers",
      "outputs": [
        {
          "internalType": "address[16]",
          "name": "",
          "type": "address[16]"
        }
      ],
      "payable": false,
      "stateMutability": "view",
      "type": "function"
    }
  ],
  "bytecode": "0x608060405234801561001057600080fd5b506102b9806100206000396000f3fe608060405234801561001057600080fd5b50600436106100415760003560e01c8063d96a094a14610046578063f2aa821814610088578063f64bfaba146100f6575b600080fd5b6100726004803603602081101561005c57600080fd5b810190808035906020019092919050505061013c565b6040518082815260200191505060405180910390f35b6100b46004803603602081101561009e57600080fd5b81019080803590602001909291905050506101ad565b604051808273ffffffffffffffffffffffffffffffffffffffff1673ffffffffffffffffffffffffffffffffffffffff16815260200191505060405180910390f35b6100fe6101e0565b6040518082601060200280838360005b8381101561012957808201518184015260208101905061010e565b5050505090500191505060405180910390f35b600080821015801561014f5750600f8211155b61015857600080fd5b336000836010811061016657fe5b0160006101000a81548173ffffffffffffffffffffffffffffffffffffffff021916908373ffffffffffffffffffffffffffffffffffffffff160217905550819050919050565b600081601081106101ba57fe5b016000915054906101000a900473ffffffffffffffffffffffffffffffffffffffff1681565b6101e8610261565b6000601080602002604051908101604052809291908260108015610257576020028201915b8160009054906101000a900473ffffffffffffffffffffffffffffffffffffffff1673ffffffffffffffffffffffffffffffffffffffff168152602001906001019080831161020d575b5050505050905090565b60405180610200016040528060109060208202803883398082019150509050509056fea265627a7a7231582030b7889966a34cf9c454c973362c99bf45883bae5b6b082ef6ff4f7fbf085cfa64736f6c63430005110032",
  "source": "pragma solidity ^0.5.0;\n\ncontract Market {\naddress[16] public buyers;\n// Adopting a pet\nfunction buy(uint itemId) public returns (uint) {\n  require(itemId >= 0 && itemId <= 15);\n\n  buyers[itemId] = msg.sender;\n\n  return itemId;\n}\n// Retrieving the buyer\nfunction getBuyers() public view returns (address[16] memory) {\n  return buyers;\n}\n}\n",
  "sourcePath": "/Users/yangsong/Desktop/aps1050/aps1050_project/contracts/Market.sol",
  "compiler": {
    "name": "solc",
    "version": "0.5.17+commit.d19bba13.Emscripten.clang"
  },
  "schemaVersion": "3.4.13",
  "updatedAt": "2023-04-15T02:27:34.384Z",
  "networkType": "ethereum",
  "devdoc": {
    "methods": {}
  },
  "userdoc": {
    "methods": {}
  }
}