{
  "contractName": "UserPetServed",
  "abi": [
    {
      "constant": true,
      "inputs": [],
      "name": "petServed",
      "outputs": [
        {
          "internalType": "uint256",
          "name": "",
          "type": "uint256"
        }
      ],
      "payable": false,
      "stateMutability": "view",
      "type": "function"
    },
    {
      "constant": true,
      "inputs": [],
      "name": "userServed",
      "outputs": [
        {
          "internalType": "uint256",
          "name": "",
          "type": "uint256"
        }
      ],
      "payable": false,
      "stateMutability": "view",
      "type": "function"
    },
    {
      "constant": false,
      "inputs": [
        {
          "internalType": "uint256",
          "name": "petId",
          "type": "uint256"
        }
      ],
      "name": "adopt",
      "outputs": [
        {
          "internalType": "uint256",
          "name": "",
          "type": "uint256"
        }
      ],
      "payable": false,
      "stateMutability": "nonpayable",
      "type": "function"
    }
  ],
  "bytecode": "0x608060405234801561001057600080fd5b506101f6806100206000396000f3fe608060405234801561001057600080fd5b50600436106100415760003560e01c80638588b2c514610046578063932af6d714610088578063f5ca196b146100a6575b600080fd5b6100726004803603602081101561005c57600080fd5b81019080803590602001909291905050506100c4565b6040518082815260200191505060405180910390f35b6100906101b5565b6040518082815260200191505060405180910390f35b6100ae6101bb565b6040518082815260200191505060405180910390f35b60008082101580156100d75750600f8211155b6100e057600080fd5b6000808154809291906001019190505550600260003373ffffffffffffffffffffffffffffffffffffffff1673ffffffffffffffffffffffffffffffffffffffff16815260200190815260200160002060009054906101000a900460ff166101ad576001600081548092919060010191905055506001600260003373ffffffffffffffffffffffffffffffffffffffff1673ffffffffffffffffffffffffffffffffffffffff16815260200190815260200160002060006101000a81548160ff0219169083151502179055505b819050919050565b60005481565b6001548156fea265627a7a7231582098cf1735a069c75305d3bde95d492accb24843a5d2275851d26cd39c8c15db1464736f6c63430005110032",
  "source": "pragma solidity ^0.5.0;\r\n\r\ncontract UserPetServed {\r\n  \r\nuint public petServed;\r\n\r\nuint public userServed;\r\n\r\nmapping (address => bool) private oldUser;\r\n\r\n\r\n// Adopting a pet\r\nfunction adopt(uint petId) public returns (uint) {\r\n  require(petId >= 0 && petId <= 15);\r\n  \r\n  petServed ++;\r\n\r\n  if (!oldUser[msg.sender]){\r\n    userServed ++;\r\n    oldUser[msg.sender] = true;\r\n  }\r\n  return petId;\r\n}\r\n\r\n}",
  "sourcePath": "D:/aps1050/proj_demo/aps1050_project/contracts/UserPetServed.sol",
  "compiler": {
    "name": "solc",
    "version": "0.5.17+commit.d19bba13.Emscripten.clang"
  },
  "schemaVersion": "3.0.22",
  "updatedAt": "2023-04-15T03:15:57.392Z",
  "networkType": "ethereum",
  "devdoc": {
    "methods": {}
  },
  "userdoc": {
    "methods": {}
  }
}