{
  "contractName": "UserTrack",
  "abi": [
    {
      "constant": false,
      "inputs": [
        {
          "internalType": "uint256",
          "name": "petId",
          "type": "uint256"
        }
      ],
      "name": "adopt",
      "outputs": [
        {
          "internalType": "uint256",
          "name": "",
          "type": "uint256"
        }
      ],
      "payable": false,
      "stateMutability": "nonpayable",
      "type": "function"
    },
    {
      "constant": true,
      "inputs": [],
      "name": "getAdoptersPetCount",
      "outputs": [
        {
          "internalType": "uint256",
          "name": "",
          "type": "uint256"
        }
      ],
      "payable": false,
      "stateMutability": "view",
      "type": "function"
    },
    {
      "constant": true,
      "inputs": [],
      "name": "getAdoptersPets",
      "outputs": [
        {
          "internalType": "uint256[16]",
          "name": "",
          "type": "uint256[16]"
        }
      ],
      "payable": false,
      "stateMutability": "view",
      "type": "function"
    }
  ],
  "bytecode": "0x608060405234801561001057600080fd5b50610305806100206000396000f3fe608060405234801561001057600080fd5b50600436106100415760003560e01c806325c97aa71461004657806348952a201461008c5780638588b2c5146100aa575b600080fd5b61004e6100ec565b6040518082601060200280838360005b8381101561007957808201518184015260208101905061005e565b5050505090500191505060405180910390f35b610094610176565b6040518082815260200191505060405180910390f35b6100d6600480360360208110156100c057600080fd5b81019080803590602001909291905050506101bf565b6040518082815260200191505060405180910390f35b6100f46102ad565b6000803373ffffffffffffffffffffffffffffffffffffffff1673ffffffffffffffffffffffffffffffffffffffff16815260200190815260200160002060010160108060200260405190810160405280929190826010801561016c576020028201915b815481526020019060010190808311610158575b5050505050905090565b60008060003373ffffffffffffffffffffffffffffffffffffffff1673ffffffffffffffffffffffffffffffffffffffff16815260200190815260200160002060000154905090565b6000816000803373ffffffffffffffffffffffffffffffffffffffff1673ffffffffffffffffffffffffffffffffffffffff1681526020019081526020016000206001016000803373ffffffffffffffffffffffffffffffffffffffff1673ffffffffffffffffffffffffffffffffffffffff168152602001908152602001600020600001546010811061024f57fe5b01819055506000803373ffffffffffffffffffffffffffffffffffffffff1673ffffffffffffffffffffffffffffffffffffffff16815260200190815260200160002060000160008154809291906001019190505550819050919050565b60405180610200016040528060109060208202803883398082019150509050509056fea265627a7a72315820a6f2a65482b4e58921465316b21520e66cca06d5042db0ef8be4391b86b9943164736f6c63430005110032",
  "source": "pragma solidity ^0.5.0;\n\ncontract UserTrack{\n  \n  struct petList {\n    uint petCount;\n    uint[16] pets; \n  }\n\n  mapping (address => petList)  userlist; \n\n  // Adopting a pet\n  function adopt(uint petId) public returns (uint) {\n    \n    userlist[msg.sender].pets[userlist[msg.sender].petCount] = petId;\n    userlist[msg.sender].petCount ++;\n    return petId;\n\n  }\n  function getAdoptersPetCount() view public returns (uint) {\n    return userlist[msg.sender].petCount;\n  }\n\n  function getAdoptersPets() view public  returns (uint[16] memory) {\n    return userlist[msg.sender].pets;\n  }\n}",
  "sourcePath": "/Users/yangsong/Desktop/aps1050/aps1050_project/contracts/userTrack.sol",
  "compiler": {
    "name": "solc",
    "version": "0.5.17+commit.d19bba13.Emscripten.clang"
  },
  "schemaVersion": "3.4.13",
  "updatedAt": "2023-04-15T02:27:34.279Z",
  "networkType": "ethereum",
  "devdoc": {
    "methods": {}
  },
  "userdoc": {
    "methods": {}
  }
}