{
  "contractName": "UserPetServed",
  "abi": [
    {
      "constant": true,
      "inputs": [],
      "name": "petServed",
      "outputs": [
        {
          "internalType": "uint256",
          "name": "",
          "type": "uint256"
        }
      ],
      "payable": false,
      "stateMutability": "view",
      "type": "function"
    },
    {
      "constant": true,
      "inputs": [],
      "name": "userServed",
      "outputs": [
        {
          "internalType": "uint256",
          "name": "",
          "type": "uint256"
        }
      ],
      "payable": false,
      "stateMutability": "view",
      "type": "function"
    },
    {
      "constant": false,
      "inputs": [
        {
          "internalType": "uint256",
          "name": "petId",
          "type": "uint256"
        }
      ],
      "name": "adopt",
      "outputs": [
        {
          "internalType": "uint256",
          "name": "",
          "type": "uint256"
        }
      ],
      "payable": false,
      "stateMutability": "nonpayable",
      "type": "function"
    }
  ],
  "bytecode": "0x608060405234801561001057600080fd5b506101f6806100206000396000f3fe608060405234801561001057600080fd5b50600436106100415760003560e01c80638588b2c514610046578063932af6d714610088578063f5ca196b146100a6575b600080fd5b6100726004803603602081101561005c57600080fd5b81019080803590602001909291905050506100c4565b6040518082815260200191505060405180910390f35b6100906101b5565b6040518082815260200191505060405180910390f35b6100ae6101bb565b6040518082815260200191505060405180910390f35b60008082101580156100d75750600f8211155b6100e057600080fd5b6000808154809291906001019190505550600260003373ffffffffffffffffffffffffffffffffffffffff1673ffffffffffffffffffffffffffffffffffffffff16815260200190815260200160002060009054906101000a900460ff166101ad576001600081548092919060010191905055506001600260003373ffffffffffffffffffffffffffffffffffffffff1673ffffffffffffffffffffffffffffffffffffffff16815260200190815260200160002060006101000a81548160ff0219169083151502179055505b819050919050565b60005481565b6001548156fea265627a7a72315820bc998cb6a3ea3d23c714d0d9e1563ecc5b97e8653d2e86bf5c280e47757a644564736f6c63430005110032",
  "source": "pragma solidity ^0.5.0;\n\ncontract UserPetServed {\n  \nuint public petServed;\n\nuint public userServed;\n\nmapping (address => bool) private oldUser;\n\n\n// Adopting a pet\nfunction adopt(uint petId) public returns (uint) {\n  require(petId >= 0 && petId <= 15);\n  \n  petServed ++;\n\n  if (!oldUser[msg.sender]){\n    userServed ++;\n    oldUser[msg.sender] = true;\n  }\n  return petId;\n}\n\n}",
  "sourcePath": "/Users/yangsong/Desktop/aps1050/aps1050_project/contracts/UserPetServed.sol",
  "compiler": {
    "name": "solc",
    "version": "0.5.17+commit.d19bba13.Emscripten.clang"
  },
  "schemaVersion": "3.4.13",
  "updatedAt": "2023-04-15T01:35:08.100Z",
  "networkType": "ethereum",
  "devdoc": {
    "methods": {}
  },
  "userdoc": {
    "methods": {}
  }
}